{
  "contractName": "Storage",
  "abi": [
    {
      "inputs": [],
      "stateMutability": "nonpayable",
      "type": "constructor"
    },
    {
      "anonymous": false,
      "inputs": [
        {
          "indexed": false,
          "internalType": "uint256",
          "name": "fileId",
          "type": "uint256"
        },
        {
          "indexed": false,
          "internalType": "string",
          "name": "fileHash",
          "type": "string"
        },
        {
          "indexed": false,
          "internalType": "uint256",
          "name": "fileSize",
          "type": "uint256"
        },
        {
          "indexed": false,
          "internalType": "string",
          "name": "fileType",
          "type": "string"
        },
        {
          "indexed": false,
          "internalType": "string",
          "name": "fileName",
          "type": "string"
        },
        {
          "indexed": false,
          "internalType": "string",
          "name": "fileDescription",
          "type": "string"
        },
        {
          "indexed": false,
          "internalType": "uint256",
          "name": "uploadTime",
          "type": "uint256"
        },
        {
          "indexed": false,
          "internalType": "address payable",
          "name": "uploader",
          "type": "address"
        }
      ],
      "name": "FileUploaded",
      "type": "event"
    },
    {
      "inputs": [],
      "name": "fileCount",
      "outputs": [
        {
          "internalType": "uint256",
          "name": "",
          "type": "uint256"
        }
      ],
      "stateMutability": "view",
      "type": "function",
      "constant": true
    },
    {
      "inputs": [
        {
          "internalType": "uint256",
          "name": "",
          "type": "uint256"
        }
      ],
      "name": "files",
      "outputs": [
        {
          "internalType": "uint256",
          "name": "fileId",
          "type": "uint256"
        },
        {
          "internalType": "string",
          "name": "fileHash",
          "type": "string"
        },
        {
          "internalType": "uint256",
          "name": "fileSize",
          "type": "uint256"
        },
        {
          "internalType": "string",
          "name": "fileType",
          "type": "string"
        },
        {
          "internalType": "string",
          "name": "fileName",
          "type": "string"
        },
        {
          "internalType": "string",
          "name": "fileDescription",
          "type": "string"
        },
        {
          "internalType": "uint256",
          "name": "uploadTime",
          "type": "uint256"
        },
        {
          "internalType": "address payable",
          "name": "uploader",
          "type": "address"
        }
      ],
      "stateMutability": "view",
      "type": "function",
      "constant": true
    },
    {
      "inputs": [],
      "name": "name",
      "outputs": [
        {
          "internalType": "string",
          "name": "",
          "type": "string"
        }
      ],
      "stateMutability": "view",
      "type": "function",
      "constant": true
    },
    {
      "inputs": [
        {
          "internalType": "string",
          "name": "_fileHash",
          "type": "string"
        },
        {
          "internalType": "uint256",
          "name": "_fileSize",
          "type": "uint256"
        },
        {
          "internalType": "string",
          "name": "_fileType",
          "type": "string"
        },
        {
          "internalType": "string",
          "name": "_fileName",
          "type": "string"
        },
        {
          "internalType": "string",
          "name": "_fileDescription",
          "type": "string"
        }
      ],
      "name": "uploadFile",
      "outputs": [],
      "stateMutability": "nonpayable",
      "type": "function"
    }
  ],
  "bytecode": "0x60806040526040518060400160405280600781526020017f53746f7261676500000000000000000000000000000000000000000000000000815250600090816200004a9190620002de565b5060006001553480156200005d57600080fd5b50620003c5565b600081519050919050565b7f4e487b7100000000000000000000000000000000000000000000000000000000600052604160045260246000fd5b7f4e487b7100000000000000000000000000000000000000000000000000000000600052602260045260246000fd5b60006002820490506001821680620000e657607f821691505b602082108103620000fc57620000fb6200009e565b5b50919050565b60008190508160005260206000209050919050565b60006020601f8301049050919050565b600082821b905092915050565b600060088302620001667fffffffffffffffffffffffffffffffffffffffffffffffffffffffffffffffff8262000127565b62000172868362000127565b95508019841693508086168417925050509392505050565b6000819050919050565b6000819050919050565b6000620001bf620001b9620001b3846200018a565b62000194565b6200018a565b9050919050565b6000819050919050565b620001db836200019e565b620001f3620001ea82620001c6565b84845462000134565b825550505050565b600090565b6200020a620001fb565b62000217818484620001d0565b505050565b5b818110156200023f576200023360008262000200565b6001810190506200021d565b5050565b601f8211156200028e57620002588162000102565b620002638462000117565b8101602085101562000273578190505b6200028b620002828562000117565b8301826200021c565b50505b505050565b600082821c905092915050565b6000620002b36000198460080262000293565b1980831691505092915050565b6000620002ce8383620002a0565b9150826002028217905092915050565b620002e98262000064565b67ffffffffffffffff8111156200030557620003046200006f565b5b620003118254620000cd565b6200031e82828562000243565b600060209050601f83116001811462000356576000841562000341578287015190505b6200034d8582620002c0565b865550620003bd565b601f198416620003668662000102565b60005b82811015620003905784890151825560018201915060208501945060208101905062000369565b86831015620003b05784890151620003ac601f891682620002a0565b8355505b6001600288020188555050505b505050505050565b6111ac80620003d56000396000f3fe608060405234801561001057600080fd5b506004361061004c5760003560e01c806306fdde0314610051578063439535191461006f578063e82d9d331461008d578063f4c714b4146100a9575b600080fd5b6100596100e0565b60405161006691906107db565b60405180910390f35b61007761016e565b6040516100849190610816565b60405180910390f35b6100a760048036038101906100a291906109a6565b610174565b005b6100c360048036038101906100be9190610a91565b6104c3565b6040516100d7989796959493929190610aff565b60405180910390f35b600080546100ed90610bc8565b80601f016020809104026020016040519081016040528092919081815260200182805461011990610bc8565b80156101665780601f1061013b57610100808354040283529160200191610166565b820191906000526020600020905b81548152906001019060200180831161014957829003601f168201915b505050505081565b60015481565b60008551116101b8576040517f08c379a00000000000000000000000000000000000000000000000000000000081526004016101af90610c45565b60405180910390fd5b60008351116101fc576040517f08c379a00000000000000000000000000000000000000000000000000000000081526004016101f390610cb1565b60405180910390fd5b6000815111610240576040517f08c379a000000000000000000000000000000000000000000000000000000000815260040161023790610d1d565b60405180910390fd5b6000825111610284576040517f08c379a000000000000000000000000000000000000000000000000000000000815260040161027b90610d89565b60405180910390fd5b600084116102c7576040517f08c379a00000000000000000000000000000000000000000000000000000000081526004016102be90610df5565b60405180910390fd5b600073ffffffffffffffffffffffffffffffffffffffff163373ffffffffffffffffffffffffffffffffffffffff1603610336576040517f08c379a000000000000000000000000000000000000000000000000000000000815260040161032d90610e61565b60405180910390fd5b6001600081548092919061034990610eb0565b919050555060405180610100016040528060015481526020018681526020018581526020018481526020018381526020018281526020014281526020013373ffffffffffffffffffffffffffffffffffffffff168152506002600060015481526020019081526020016000206000820151816000015560208201518160010190816103d491906110a4565b506040820151816002015560608201518160030190816103f491906110a4565b50608082015181600401908161040a91906110a4565b5060a082015181600501908161042091906110a4565b5060c0820151816006015560e08201518160070160006101000a81548173ffffffffffffffffffffffffffffffffffffffff021916908373ffffffffffffffffffffffffffffffffffffffff1602179055509050507f6e95bbaa37a5fdec42a312e049dea2fe6160ebe659214d3409b4f91f164c2f52600154868686868642336040516104b4989796959493929190610aff565b60405180910390a15050505050565b60026020528060005260406000206000915090508060000154908060010180546104ec90610bc8565b80601f016020809104026020016040519081016040528092919081815260200182805461051890610bc8565b80156105655780601f1061053a57610100808354040283529160200191610565565b820191906000526020600020905b81548152906001019060200180831161054857829003601f168201915b50505050509080600201549080600301805461058090610bc8565b80601f01602080910402602001604051908101604052809291908181526020018280546105ac90610bc8565b80156105f95780601f106105ce576101008083540402835291602001916105f9565b820191906000526020600020905b8154815290600101906020018083116105dc57829003601f168201915b50505050509080600401805461060e90610bc8565b80601f016020809104026020016040519081016040528092919081815260200182805461063a90610bc8565b80156106875780601f1061065c57610100808354040283529160200191610687565b820191906000526020600020905b81548152906001019060200180831161066a57829003601f168201915b50505050509080600501805461069c90610bc8565b80601f01602080910402602001604051908101604052809291908181526020018280546106c890610bc8565b80156107155780601f106106ea57610100808354040283529160200191610715565b820191906000526020600020905b8154815290600101906020018083116106f857829003601f168201915b5050505050908060060154908060070160009054906101000a900473ffffffffffffffffffffffffffffffffffffffff16905088565b600081519050919050565b600082825260208201905092915050565b60005b8381101561078557808201518184015260208101905061076a565b60008484015250505050565b6000601f19601f8301169050919050565b60006107ad8261074b565b6107b78185610756565b93506107c7818560208601610767565b6107d081610791565b840191505092915050565b600060208201905081810360008301526107f581846107a2565b905092915050565b6000819050919050565b610810816107fd565b82525050565b600060208201905061082b6000830184610807565b92915050565b6000604051905090565b600080fd5b600080fd5b600080fd5b600080fd5b7f4e487b7100000000000000000000000000000000000000000000000000000000600052604160045260246000fd5b61088782610791565b810181811067ffffffffffffffff821117156108a6576108a561084f565b5b80604052505050565b60006108b9610831565b90506108c5828261087e565b919050565b600067ffffffffffffffff8211156108e5576108e461084f565b5b6108ee82610791565b9050602081019050919050565b82818337600083830152505050565b600061091d610918846108ca565b6108af565b9050828152602081018484840111156109395761093861084a565b5b6109448482856108fb565b509392505050565b600082601f83011261096157610960610845565b5b813561097184826020860161090a565b91505092915050565b610983816107fd565b811461098e57600080fd5b50565b6000813590506109a08161097a565b92915050565b600080600080600060a086880312156109c2576109c161083b565b5b600086013567ffffffffffffffff8111156109e0576109df610840565b5b6109ec8882890161094c565b95505060206109fd88828901610991565b945050604086013567ffffffffffffffff811115610a1e57610a1d610840565b5b610a2a8882890161094c565b935050606086013567ffffffffffffffff811115610a4b57610a4a610840565b5b610a578882890161094c565b925050608086013567ffffffffffffffff811115610a7857610a77610840565b5b610a848882890161094c565b9150509295509295909350565b600060208284031215610aa757610aa661083b565b5b6000610ab584828501610991565b91505092915050565b600073ffffffffffffffffffffffffffffffffffffffff82169050919050565b6000610ae982610abe565b9050919050565b610af981610ade565b82525050565b600061010082019050610b15600083018b610807565b8181036020830152610b27818a6107a2565b9050610b366040830189610807565b8181036060830152610b4881886107a2565b90508181036080830152610b5c81876107a2565b905081810360a0830152610b7081866107a2565b9050610b7f60c0830185610807565b610b8c60e0830184610af0565b9998505050505050505050565b7f4e487b7100000000000000000000000000000000000000000000000000000000600052602260045260246000fd5b60006002820490506001821680610be057607f821691505b602082108103610bf357610bf2610b99565b5b50919050565b7f46696c6520686173682063616e6e6f7420626520656d70747900000000000000600082015250565b6000610c2f601983610756565b9150610c3a82610bf9565b602082019050919050565b60006020820190508181036000830152610c5e81610c22565b9050919050565b7f46696c6520747970652063616e6e6f7420626520656d70747900000000000000600082015250565b6000610c9b601983610756565b9150610ca682610c65565b602082019050919050565b60006020820190508181036000830152610cca81610c8e565b9050919050565b7f46696c65206465736372697074696f6e2063616e6e6f7420626520656d707479600082015250565b6000610d07602083610756565b9150610d1282610cd1565b602082019050919050565b60006020820190508181036000830152610d3681610cfa565b9050919050565b7f46696c65206e616d652063616e6e6f7420626520656d70747900000000000000600082015250565b6000610d73601983610756565b9150610d7e82610d3d565b602082019050919050565b60006020820190508181036000830152610da281610d66565b9050919050565b7f46696c652073697a65206d7573742062652067726561746572207468616e2030600082015250565b6000610ddf602083610756565b9150610dea82610da9565b602082019050919050565b60006020820190508181036000830152610e0e81610dd2565b9050919050565b7f496e76616c69642075706c6f6164657220616464726573730000000000000000600082015250565b6000610e4b601883610756565b9150610e5682610e15565b602082019050919050565b60006020820190508181036000830152610e7a81610e3e565b9050919050565b7f4e487b7100000000000000000000000000000000000000000000000000000000600052601160045260246000fd5b6000610ebb826107fd565b91507fffffffffffffffffffffffffffffffffffffffffffffffffffffffffffffffff8203610eed57610eec610e81565b5b600182019050919050565b60008190508160005260206000209050919050565b60006020601f8301049050919050565b600082821b905092915050565b600060088302610f5a7fffffffffffffffffffffffffffffffffffffffffffffffffffffffffffffffff82610f1d565b610f648683610f1d565b95508019841693508086168417925050509392505050565b6000819050919050565b6000610fa1610f9c610f97846107fd565b610f7c565b6107fd565b9050919050565b6000819050919050565b610fbb83610f86565b610fcf610fc782610fa8565b848454610f2a565b825550505050565b600090565b610fe4610fd7565b610fef818484610fb2565b505050565b5b8181101561101357611008600082610fdc565b600181019050610ff5565b5050565b601f8211156110585761102981610ef8565b61103284610f0d565b81016020851015611041578190505b61105561104d85610f0d565b830182610ff4565b50505b505050565b600082821c905092915050565b600061107b6000198460080261105d565b1980831691505092915050565b6000611094838361106a565b9150826002028217905092915050565b6110ad8261074b565b67ffffffffffffffff8111156110c6576110c561084f565b5b6110d08254610bc8565b6110db828285611017565b600060209050601f83116001811461110e57600084156110fc578287015190505b6111068582611088565b86555061116e565b601f19841661111c86610ef8565b60005b828110156111445784890151825560018201915060208501945060208101905061111f565b86831015611161578489015161115d601f89168261106a565b8355505b6001600288020188555050505b50505050505056fea26469706673582212203c58ef1124aae300fca738305f1d90e4a0f411cc151d3a0f4a9fb9f3ddc42d4a64736f6c63430008130033",
  "immutableReferences": {},
  "source": "// SPDX-License-Identifier: MIT\r\npragma solidity ^0.8.0;\r\n\r\ncontract Storage {\r\n    string public name = \"Storage\";\r\n    uint public fileCount = 0;\r\n\r\n    struct File {\r\n        uint fileId;\r\n        string fileHash;\r\n        uint fileSize;\r\n        string fileType;\r\n        string fileName;\r\n        string fileDescription;\r\n        uint uploadTime;\r\n        address payable uploader;\r\n    }\r\n\r\n    event FileUploaded(\r\n        uint fileId,\r\n        string fileHash,\r\n        uint fileSize,\r\n        string fileType,\r\n        string fileName,\r\n        string fileDescription,\r\n        uint uploadTime,\r\n        address payable uploader\r\n    );\r\n\r\n    mapping(uint => File) public files;\r\n\r\n    constructor() {}\r\n\r\n    function uploadFile(string memory _fileHash, uint _fileSize, string memory _fileType, string memory _fileName, string memory _fileDescription) public {\r\n        require(bytes(_fileHash).length > 0, \"File hash cannot be empty\");\r\n        require(bytes(_fileType).length > 0, \"File type cannot be empty\");\r\n        require(bytes(_fileDescription).length > 0, \"File description cannot be empty\");\r\n        require(bytes(_fileName).length > 0, \"File name cannot be empty\");\r\n        require(_fileSize > 0, \"File size must be greater than 0\");\r\n        require(msg.sender != address(0), \"Invalid uploader address\");\r\n        fileCount++;\r\n        files[fileCount] = File(fileCount, _fileHash, _fileSize, _fileType, _fileName, _fileDescription, block.timestamp, payable(msg.sender));\r\n\r\n        emit FileUploaded(fileCount, _fileHash, _fileSize, _fileType, _fileName, _fileDescription, block.timestamp, payable(msg.sender));\r\n    }\r\n}\r\n",
  "sourcePath": "D:\\A1_proj\\dcp\\contracts\\Storage.sol",
  "compiler": {
    "name": "solc",
    "version": "0.8.19+commit.7dd6d404.Emscripten.clang"
  },
  "schemaVersion": "3.4.13",
  "updatedAt": "2023-04-09T13:23:28.457Z",
  "networkType": "ethereum",
  "devdoc": {
    "kind": "dev",
    "methods": {},
    "version": 1
  },
  "userdoc": {
    "kind": "user",
    "methods": {},
    "version": 1
  }
}